{
  "abi": [
    {
      "inputs": [
        {
          "internalType": "uint8",
          "name": "cx_axis",
          "type": "uint8"
        },
        {
          "internalType": "uint8",
          "name": "cy_axis",
          "type": "uint8"
        }
      ],
      "name": "cellLocation",
      "outputs": [
        {
          "internalType": "enum Board.Color",
          "name": "",
          "type": "uint8"
        }
      ],
      "stateMutability": "nonpayable",
      "type": "function"
    },
    {
      "inputs": [
        {
          "internalType": "uint8",
          "name": "_x",
          "type": "uint8"
        },
        {
          "internalType": "uint8",
          "name": "_y",
          "type": "uint8"
        }
      ],
      "name": "getCellColor",
      "outputs": [
        {
          "internalType": "string",
          "name": "",
          "type": "string"
        }
      ],
      "stateMutability": "view",
      "type": "function"
    },
    {
      "inputs": [
        {
          "internalType": "uint8",
          "name": "x1",
          "type": "uint8"
        },
        {
          "internalType": "uint8",
          "name": "x2",
          "type": "uint8"
        },
        {
          "internalType": "uint8",
          "name": "y1",
          "type": "uint8"
        },
        {
          "internalType": "uint8",
          "name": "y2",
          "type": "uint8"
        }
      ],
      "name": "getCoordinateColor",
      "outputs": [
        {
          "internalType": "string",
          "name": "",
          "type": "string"
        },
        {
          "internalType": "string",
          "name": "",
          "type": "string"
        }
      ],
      "stateMutability": "view",
      "type": "function"
    },
    {
      "inputs": [],
      "name": "x_axis",
      "outputs": [
        {
          "internalType": "uint8",
          "name": "",
          "type": "uint8"
        }
      ],
      "stateMutability": "view",
      "type": "function"
    },
    {
      "inputs": [],
      "name": "y_axis",
      "outputs": [
        {
          "internalType": "uint8",
          "name": "",
          "type": "uint8"
        }
      ],
      "stateMutability": "view",
      "type": "function"
    }
  ],
  "bytecode": {
    "object": "0x60806040526000805461ffff191661050717905534801561001f57600080fd5b506107818061002f6000396000f3fe608060405234801561001057600080fd5b50600436106100575760003560e01c806332823f781461005c57806389911e69146100865780638d3faff4146100a6578063b0110a48146100c5578063fc0ab062146100d7575b600080fd5b61006f61006a366004610581565b6100f7565b60405161007d92919061061b565b60405180910390f35b610099610094366004610649565b610213565b60405161007d9190610692565b6000546100b39060ff1681565b60405160ff909116815260200161007d565b6000546100b390610100900460ff1681565b6100ea6100e5366004610649565b6103ef565b60405161007d91906106ba565b600054606090819060ff9081169087161180159061011e575060005460ff90811690861611155b8015610151575060005460ff610100909104811690851611801590610151575060005460ff610100909104811690841611155b6101985760405162461bcd60e51b8152602060048201526013602482015272496e76616c696420436f6f726469616e74657360681b60448201526064015b60405180910390fd5b60ff808716600090815260016020818152604080842089861685528252808420548a8616855292825280842088861685529091529091205490821691166101ef8260038111156101ea576101ea61067c565b61049b565b6102048260038111156101ea576101ea61067c565b93509350505094509492505050565b6000805b8360ff168160ff1610156103e85760005b8360ff168160ff1610156103d557600461024282846106e3565b61024c91906106fc565b60ff1660000361028e5760ff8083166000908152600160208181526040808420948616845293905291812080549192909160ff191690835b02179055506103c3565b600461029a82846106e3565b6102a491906106fc565b60ff166001036102e15760ff80831660009081526001602081815260408084209486168452939052919020805460029260ff199091169083610284565b60046102ed82846106e3565b6102f791906106fc565b60ff1660020361032f5760ff80831660009081526001602081815260408084209486168452939052919020805460ff19168280610284565b600461033b82846106e3565b61034591906106fc565b60ff166003036103825760ff80831660009081526001602081815260408084209486168452939052919020805460039260ff199091169083610284565b60405162461bcd60e51b8152602060048201526016602482015275496e76616c696420736574206f66206e756d6265727360501b604482015260640161018f565b806103cd8161072c565b915050610228565b50806103e08161072c565b915050610217565b5092915050565b60005460609060ff90811690841611801590610419575060005460ff610100909104811690831611155b61045b5760405162461bcd60e51b8152602060048201526013602482015272496e76616c69642078206f722079206178697360681b604482015260640161018f565b60ff80841660009081526001602090815260408083208685168452909152902054610492911660038111156101ea576101ea61067c565b90505b92915050565b60608160ff166001036104c9575050604080518082019091526005815264576869746560d81b602082015290565b8160ff166002036104f5575050604080518082019091526005815264426c61636b60d81b602082015290565b8160ff16600303610520575050604080518082019091526004815263426c756560e01b602082015290565b8160ff1660040361054a57505060408051808201909152600381526214995960ea1b602082015290565b505060408051808201909152600581526423b932b2b760d91b602082015290565b803560ff8116811461057c57600080fd5b919050565b6000806000806080858703121561059757600080fd5b6105a08561056b565b93506105ae6020860161056b565b92506105bc6040860161056b565b91506105ca6060860161056b565b905092959194509250565b6000815180845260005b818110156105fb576020818501810151868301820152016105df565b506000602082860101526020601f19601f83011685010191505092915050565b60408152600061062e60408301856105d5565b828103602084015261064081856105d5565b95945050505050565b6000806040838503121561065c57600080fd5b6106658361056b565b91506106736020840161056b565b90509250929050565b634e487b7160e01b600052602160045260246000fd5b60208101600483106106b457634e487b7160e01b600052602160045260246000fd5b91905290565b60208152600061049260208301846105d5565b634e487b7160e01b600052601160045260246000fd5b60ff8181168382160190811115610495576104956106cd565b600060ff83168061071d57634e487b7160e01b600052601260045260246000fd5b8060ff84160691505092915050565b600060ff821660ff8103610742576107426106cd565b6001019291505056fea264697066735822122001bbdc26e965bdbac7b4cd6560a241b6040f87bc2082c2c9ce9ebfde908a279464736f6c63430008150033",
    "linkReferences": {}
  },
  "methodIdentifiers": {
    "cellLocation(uint8,uint8)": "89911e69",
    "getCellColor(uint8,uint8)": "fc0ab062",
    "getCoordinateColor(uint8,uint8,uint8,uint8)": "32823f78",
    "x_axis()": "8d3faff4",
    "y_axis()": "b0110a48"
  },
  "id": 0
}